{
  "contractName": "Coin",
  "abi": [
    {
      "inputs": [],
      "stateMutability": "nonpayable",
      "type": "constructor"
    },
    {
      "inputs": [
        {
          "internalType": "uint256",
          "name": "requested",
          "type": "uint256"
        },
        {
          "internalType": "uint256",
          "name": "available",
          "type": "uint256"
        }
      ],
      "name": "InsufficientBalance",
      "type": "error"
    },
    {
      "anonymous": false,
      "inputs": [
        {
          "indexed": false,
          "internalType": "address",
          "name": "from",
          "type": "address"
        },
        {
          "indexed": false,
          "internalType": "address",
          "name": "to",
          "type": "address"
        },
        {
          "indexed": false,
          "internalType": "uint256",
          "name": "amount",
          "type": "uint256"
        }
      ],
      "name": "Sent",
      "type": "event"
    },
    {
      "inputs": [
        {
          "internalType": "address",
          "name": "",
          "type": "address"
        }
      ],
      "name": "coinBalances",
      "outputs": [
        {
          "internalType": "uint256",
          "name": "",
          "type": "uint256"
        }
      ],
      "stateMutability": "view",
      "type": "function",
      "constant": true
    },
    {
      "inputs": [],
      "name": "minter",
      "outputs": [
        {
          "internalType": "address",
          "name": "",
          "type": "address"
        }
      ],
      "stateMutability": "view",
      "type": "function",
      "constant": true
    },
    {
      "inputs": [
        {
          "internalType": "address",
          "name": "receiver",
          "type": "address"
        },
        {
          "internalType": "uint256",
          "name": "amount",
          "type": "uint256"
        }
      ],
      "name": "mint",
      "outputs": [],
      "stateMutability": "nonpayable",
      "type": "function"
    },
    {
      "inputs": [
        {
          "internalType": "address",
          "name": "receiver",
          "type": "address"
        },
        {
          "internalType": "uint256",
          "name": "amount",
          "type": "uint256"
        }
      ],
      "name": "send",
      "outputs": [],
      "stateMutability": "nonpayable",
      "type": "function"
    }
  ],
  "bytecode": "0x608060405234801561001057600080fd5b50336000806101000a81548173ffffffffffffffffffffffffffffffffffffffff021916908373ffffffffffffffffffffffffffffffffffffffff16021790555061061e806100606000396000f3fe608060405234801561001057600080fd5b506004361061004c5760003560e01c8063075461721461005157806340c10f191461006f578063613b0c031461008b578063d0679d34146100bb575b600080fd5b6100596100d7565b604051610066919061042a565b60405180910390f35b610089600480360381019061008491906103cc565b6100fb565b005b6100a560048036038101906100a0919061039f565b6101ad565b6040516100b2919061047c565b60405180910390f35b6100d560048036038101906100d091906103cc565b6101c5565b005b60008054906101000a900473ffffffffffffffffffffffffffffffffffffffff1681565b60008054906101000a900473ffffffffffffffffffffffffffffffffffffffff1673ffffffffffffffffffffffffffffffffffffffff163373ffffffffffffffffffffffffffffffffffffffff161461015357600080fd5b80600160008473ffffffffffffffffffffffffffffffffffffffff1673ffffffffffffffffffffffffffffffffffffffff16815260200190815260200160002060008282546101a291906104c0565b925050819055505050565b60016020528060005260406000206000915090505481565b600160003373ffffffffffffffffffffffffffffffffffffffff1673ffffffffffffffffffffffffffffffffffffffff1681526020019081526020016000205481111561028a5780600160003373ffffffffffffffffffffffffffffffffffffffff1673ffffffffffffffffffffffffffffffffffffffff168152602001908152602001600020546040517fcf479181000000000000000000000000000000000000000000000000000000008152600401610281929190610497565b60405180910390fd5b80600160003373ffffffffffffffffffffffffffffffffffffffff1673ffffffffffffffffffffffffffffffffffffffff16815260200190815260200160002060008282546102d99190610516565b9250508190555080600160008473ffffffffffffffffffffffffffffffffffffffff1673ffffffffffffffffffffffffffffffffffffffff168152602001908152602001600020600082825461032f91906104c0565b925050819055507f3990db2d31862302a685e8086b5755072a6e2b5b780af1ee81ece35ee3cd334533838360405161036993929190610445565b60405180910390a15050565b600081359050610384816105ba565b92915050565b600081359050610399816105d1565b92915050565b6000602082840312156103b5576103b46105b5565b5b60006103c384828501610375565b91505092915050565b600080604083850312156103e3576103e26105b5565b5b60006103f185828601610375565b92505060206104028582860161038a565b9150509250929050565b6104158161054a565b82525050565b6104248161057c565b82525050565b600060208201905061043f600083018461040c565b92915050565b600060608201905061045a600083018661040c565b610467602083018561040c565b610474604083018461041b565b949350505050565b6000602082019050610491600083018461041b565b92915050565b60006040820190506104ac600083018561041b565b6104b9602083018461041b565b9392505050565b60006104cb8261057c565b91506104d68361057c565b9250827fffffffffffffffffffffffffffffffffffffffffffffffffffffffffffffffff0382111561050b5761050a610586565b5b828201905092915050565b60006105218261057c565b915061052c8361057c565b92508282101561053f5761053e610586565b5b828203905092915050565b60006105558261055c565b9050919050565b600073ffffffffffffffffffffffffffffffffffffffff82169050919050565b6000819050919050565b7f4e487b7100000000000000000000000000000000000000000000000000000000600052601160045260246000fd5b600080fd5b6105c38161054a565b81146105ce57600080fd5b50565b6105da8161057c565b81146105e557600080fd5b5056fea26469706673582212203c205c5c311a3f9c577e81c2a3f9cacfb8e89462a64aab9e13d1c6ef3416714464736f6c63430008060033",
  "immutableReferences": {},
  "source": "// SPDX-License-Identifier: GPL-3.0\n// Template from https://docs.soliditylang.org/en/latest/introduction-to-smart-contracts.html\npragma solidity ^0.8.0;\n\ncontract Coin {\n    // The keyword \"public\" makes variables\n    // accessible from other contracts\n    address public minter;\n    mapping (address => uint) public coinBalances;\n\n    // Events allow clients to react to specific\n    // contract changes you declare\n    event Sent(address from, address to, uint amount);\n\n    // Constructor code is only run when the contract\n    // is created\n    constructor() {\n        minter = msg.sender;\n    }\n\n    // Sends an amount of newly created coins to an address\n    // Can only be called by the contract creator\n    function mint(address receiver, uint amount) public {\n        require(msg.sender == minter);\n        coinBalances[receiver] += amount;\n    }\n\n    // Errors allow you to provide information about\n    // why an operation failed. They are returned\n    // to the caller of the function.\n    error InsufficientBalance(uint requested, uint available);\n\n    // Sends an amount of existing coins\n    // from any caller to an address\n    function send(address receiver, uint amount) public {\n        if (amount > coinBalances[msg.sender])\n            revert InsufficientBalance({\n                requested: amount,\n                available: coinBalances[msg.sender]\n            });\n\n        coinBalances[msg.sender] -= amount;\n        coinBalances[receiver] += amount;\n        emit Sent(msg.sender, receiver, amount);\n    }\n}\n",
  "sourcePath": "/home/kali/Documents/crypto/minibank/src/contracts/Coin.sol",
  "compiler": {
    "name": "solc",
    "version": "0.8.6+commit.11564f7e.Emscripten.clang"
  },
  "schemaVersion": "3.4.0",
  "updatedAt": "2021-06-28T11:20:34.000Z",
  "networkType": "ethereum",
  "devdoc": {
    "kind": "dev",
    "methods": {},
    "version": 1
  },
  "userdoc": {
    "kind": "user",
    "methods": {},
    "version": 1
  }
}